{
  "_format": "hh-sol-artifact-1",
  "contractName": "BlockPro",
  "sourceName": "contracts/BlockPro.sol",
  "abi": [
    {
      "inputs": [],
      "stateMutability": "nonpayable",
      "type": "constructor"
    },
    {
      "anonymous": false,
      "inputs": [
        {
          "indexed": true,
          "internalType": "address",
          "name": "author",
          "type": "address"
        },
        {
          "indexed": false,
          "internalType": "string",
          "name": "content",
          "type": "string"
        }
      ],
      "name": "PostCreated",
      "type": "event"
    },
    {
      "anonymous": false,
      "inputs": [
        {
          "indexed": true,
          "internalType": "address",
          "name": "user",
          "type": "address"
        },
        {
          "indexed": false,
          "internalType": "string",
          "name": "name",
          "type": "string"
        },
        {
          "indexed": false,
          "internalType": "string",
          "name": "headline",
          "type": "string"
        }
      ],
      "name": "ProfileCreated",
      "type": "event"
    },
    {
      "anonymous": false,
      "inputs": [
        {
          "indexed": true,
          "internalType": "address",
          "name": "user",
          "type": "address"
        }
      ],
      "name": "ProfileDeleted",
      "type": "event"
    },
    {
      "anonymous": false,
      "inputs": [
        {
          "indexed": true,
          "internalType": "address",
          "name": "user",
          "type": "address"
        },
        {
          "indexed": false,
          "internalType": "string",
          "name": "name",
          "type": "string"
        },
        {
          "indexed": false,
          "internalType": "string",
          "name": "headline",
          "type": "string"
        }
      ],
      "name": "ProfileUpdated",
      "type": "event"
    },
    {
      "inputs": [
        {
          "internalType": "string",
          "name": "_content",
          "type": "string"
        }
      ],
      "name": "createPost",
      "outputs": [],
      "stateMutability": "nonpayable",
      "type": "function"
    },
    {
      "inputs": [
        {
          "internalType": "string",
          "name": "_name",
          "type": "string"
        },
        {
          "internalType": "string",
          "name": "_headline",
          "type": "string"
        }
      ],
      "name": "createProfile",
      "outputs": [],
      "stateMutability": "nonpayable",
      "type": "function"
    },
    {
      "inputs": [],
      "name": "creator",
      "outputs": [
        {
          "internalType": "address",
          "name": "",
          "type": "address"
        }
      ],
      "stateMutability": "view",
      "type": "function"
    },
    {
      "inputs": [],
      "name": "deleteProfile",
      "outputs": [],
      "stateMutability": "nonpayable",
      "type": "function"
    },
    {
      "inputs": [
        {
          "internalType": "uint256",
          "name": "_index",
          "type": "uint256"
        }
      ],
      "name": "getPost",
      "outputs": [
        {
          "internalType": "address",
          "name": "",
          "type": "address"
        },
        {
          "internalType": "string",
          "name": "",
          "type": "string"
        }
      ],
      "stateMutability": "view",
      "type": "function"
    },
    {
      "inputs": [],
      "name": "getPostCount",
      "outputs": [
        {
          "internalType": "uint256",
          "name": "",
          "type": "uint256"
        }
      ],
      "stateMutability": "view",
      "type": "function"
    },
    {
      "inputs": [
        {
          "internalType": "address",
          "name": "_user",
          "type": "address"
        }
      ],
      "name": "getProfile",
      "outputs": [
        {
          "internalType": "string",
          "name": "",
          "type": "string"
        },
        {
          "internalType": "string",
          "name": "",
          "type": "string"
        }
      ],
      "stateMutability": "view",
      "type": "function"
    },
    {
      "inputs": [
        {
          "internalType": "uint256",
          "name": "",
          "type": "uint256"
        }
      ],
      "name": "posts",
      "outputs": [
        {
          "internalType": "address",
          "name": "author",
          "type": "address"
        },
        {
          "internalType": "string",
          "name": "content",
          "type": "string"
        }
      ],
      "stateMutability": "view",
      "type": "function"
    },
    {
      "inputs": [
        {
          "internalType": "address",
          "name": "",
          "type": "address"
        }
      ],
      "name": "profiles",
      "outputs": [
        {
          "internalType": "string",
          "name": "name",
          "type": "string"
        },
        {
          "internalType": "string",
          "name": "headline",
          "type": "string"
        }
      ],
      "stateMutability": "view",
      "type": "function"
    },
    {
      "inputs": [
        {
          "internalType": "string",
          "name": "_name",
          "type": "string"
        },
        {
          "internalType": "string",
          "name": "_headline",
          "type": "string"
        }
      ],
      "name": "updateProfile",
      "outputs": [],
      "stateMutability": "nonpayable",
      "type": "function"
    }
  ],
  "bytecode": "0x608060405234801561001057600080fd5b5033600260006101000a81548173ffffffffffffffffffffffffffffffffffffffff021916908373ffffffffffffffffffffffffffffffffffffffff160217905550611329806100616000396000f3fe608060405234801561001057600080fd5b506004361061009e5760003560e01c8063ba1feb8a11610066578063ba1feb8a1461015e578063bbe156271461017a578063bcc95407146101ab578063c7303c61146101c9578063c9d3cc6a146101e55761009e565b806302d05d3f146100a35780630b1e7f83146100c15780630f53a470146100f257806340731c24146101235780636d4540eb14610154575b600080fd5b6100ab610201565b6040516100b89190610b56565b60405180910390f35b6100db60048036038101906100d69190610bbb565b610227565b6040516100e9929190610c78565b60405180910390f35b61010c60048036038101906101079190610cd4565b610303565b60405161011a929190610d01565b60405180910390f35b61013d60048036038101906101389190610bbb565b61048b565b60405161014b929190610c78565b60405180910390f35b61015c610603565b005b61017860048036038101906101739190610e6d565b6106a9565b005b610194600480360381019061018f9190610cd4565b61077f565b6040516101a2929190610d01565b60405180910390f35b6101b36108b3565b6040516101c09190610ef4565b60405180910390f35b6101e360048036038101906101de9190610f0f565b6108c0565b005b6101ff60048036038101906101fa9190610e6d565b6109c6565b005b600260009054906101000a900473ffffffffffffffffffffffffffffffffffffffff1681565b6001818154811061023757600080fd5b90600052602060002090600202016000915090508060000160009054906101000a900473ffffffffffffffffffffffffffffffffffffffff169080600101805461028090610f87565b80601f01602080910402602001604051908101604052809291908181526020018280546102ac90610f87565b80156102f95780601f106102ce576101008083540402835291602001916102f9565b820191906000526020600020905b8154815290600101906020018083116102dc57829003601f168201915b5050505050905082565b60608060008060008573ffffffffffffffffffffffffffffffffffffffff1673ffffffffffffffffffffffffffffffffffffffff16815260200190815260200160002060405180604001604052908160008201805461036190610f87565b80601f016020809104026020016040519081016040528092919081815260200182805461038d90610f87565b80156103da5780601f106103af576101008083540402835291602001916103da565b820191906000526020600020905b8154815290600101906020018083116103bd57829003601f168201915b505050505081526020016001820180546103f390610f87565b80601f016020809104026020016040519081016040528092919081815260200182805461041f90610f87565b801561046c5780601f106104415761010080835404028352916020019161046c565b820191906000526020600020905b81548152906001019060200180831161044f57829003601f168201915b5050505050815250509050806000015181602001519250925050915091565b6000606060018054905083106104d6576040517f08c379a00000000000000000000000000000000000000000000000000000000081526004016104cd90611004565b60405180910390fd5b6000600184815481106104ec576104eb611024565b5b90600052602060002090600202016040518060400160405290816000820160009054906101000a900473ffffffffffffffffffffffffffffffffffffffff1673ffffffffffffffffffffffffffffffffffffffff1673ffffffffffffffffffffffffffffffffffffffff16815260200160018201805461056b90610f87565b80601f016020809104026020016040519081016040528092919081815260200182805461059790610f87565b80156105e45780601f106105b9576101008083540402835291602001916105e4565b820191906000526020600020905b8154815290600101906020018083116105c757829003601f168201915b5050505050815250509050806000015181602001519250925050915091565b6000803373ffffffffffffffffffffffffffffffffffffffff1673ffffffffffffffffffffffffffffffffffffffff168152602001908152602001600020600080820160006106529190610ab8565b6001820160006106629190610ab8565b50503373ffffffffffffffffffffffffffffffffffffffff167f517b492f6c7db035d7c3c4fa1ce0cb2d05e1f24219256f50fbab78242e544c0460405160405180910390a2565b6040518060400160405280838152602001828152506000803373ffffffffffffffffffffffffffffffffffffffff1673ffffffffffffffffffffffffffffffffffffffff168152602001908152602001600020600082015181600001908161071191906111ff565b50602082015181600101908161072791906111ff565b509050503373ffffffffffffffffffffffffffffffffffffffff167f6b4494367229a908b0585b361e2871a21f8eb4cd852c02f55c9e06989f4bb2aa8383604051610773929190610d01565b60405180910390a25050565b60006020528060005260406000206000915090508060000180546107a290610f87565b80601f01602080910402602001604051908101604052809291908181526020018280546107ce90610f87565b801561081b5780601f106107f05761010080835404028352916020019161081b565b820191906000526020600020905b8154815290600101906020018083116107fe57829003601f168201915b50505050509080600101805461083090610f87565b80601f016020809104026020016040519081016040528092919081815260200182805461085c90610f87565b80156108a95780601f1061087e576101008083540402835291602001916108a9565b820191906000526020600020905b81548152906001019060200180831161088c57829003601f168201915b5050505050905082565b6000600180549050905090565b600160405180604001604052803373ffffffffffffffffffffffffffffffffffffffff16815260200183815250908060018154018082558091505060019003906000526020600020906002020160009091909190915060008201518160000160006101000a81548173ffffffffffffffffffffffffffffffffffffffff021916908373ffffffffffffffffffffffffffffffffffffffff160217905550602082015181600101908161097291906111ff565b5050503373ffffffffffffffffffffffffffffffffffffffff167f60f6a34249e8c81d18200240e021c236fe990a6c8d1f66dd302470bd410587ba826040516109bb91906112d1565b60405180910390a250565b816000803373ffffffffffffffffffffffffffffffffffffffff1673ffffffffffffffffffffffffffffffffffffffff1681526020019081526020016000206000019081610a1491906111ff565b50806000803373ffffffffffffffffffffffffffffffffffffffff1673ffffffffffffffffffffffffffffffffffffffff1681526020019081526020016000206001019081610a6391906111ff565b503373ffffffffffffffffffffffffffffffffffffffff167f6eb3a1c6a4675ba92d44e090515b1ceea358f26565d2854df0c99c3f5eaf98508383604051610aac929190610d01565b60405180910390a25050565b508054610ac490610f87565b6000825580601f10610ad65750610af5565b601f016020900490600052602060002090810190610af49190610af8565b5b50565b5b80821115610b11576000816000905550600101610af9565b5090565b600073ffffffffffffffffffffffffffffffffffffffff82169050919050565b6000610b4082610b15565b9050919050565b610b5081610b35565b82525050565b6000602082019050610b6b6000830184610b47565b92915050565b6000604051905090565b600080fd5b600080fd5b6000819050919050565b610b9881610b85565b8114610ba357600080fd5b50565b600081359050610bb581610b8f565b92915050565b600060208284031215610bd157610bd0610b7b565b5b6000610bdf84828501610ba6565b91505092915050565b600081519050919050565b600082825260208201905092915050565b60005b83811015610c22578082015181840152602081019050610c07565b60008484015250505050565b6000601f19601f8301169050919050565b6000610c4a82610be8565b610c548185610bf3565b9350610c64818560208601610c04565b610c6d81610c2e565b840191505092915050565b6000604082019050610c8d6000830185610b47565b8181036020830152610c9f8184610c3f565b90509392505050565b610cb181610b35565b8114610cbc57600080fd5b50565b600081359050610cce81610ca8565b92915050565b600060208284031215610cea57610ce9610b7b565b5b6000610cf884828501610cbf565b91505092915050565b60006040820190508181036000830152610d1b8185610c3f565b90508181036020830152610d2f8184610c3f565b90509392505050565b600080fd5b600080fd5b7f4e487b7100000000000000000000000000000000000000000000000000000000600052604160045260246000fd5b610d7a82610c2e565b810181811067ffffffffffffffff82111715610d9957610d98610d42565b5b80604052505050565b6000610dac610b71565b9050610db88282610d71565b919050565b600067ffffffffffffffff821115610dd857610dd7610d42565b5b610de182610c2e565b9050602081019050919050565b82818337600083830152505050565b6000610e10610e0b84610dbd565b610da2565b905082815260208101848484011115610e2c57610e2b610d3d565b5b610e37848285610dee565b509392505050565b600082601f830112610e5457610e53610d38565b5b8135610e64848260208601610dfd565b91505092915050565b60008060408385031215610e8457610e83610b7b565b5b600083013567ffffffffffffffff811115610ea257610ea1610b80565b5b610eae85828601610e3f565b925050602083013567ffffffffffffffff811115610ecf57610ece610b80565b5b610edb85828601610e3f565b9150509250929050565b610eee81610b85565b82525050565b6000602082019050610f096000830184610ee5565b92915050565b600060208284031215610f2557610f24610b7b565b5b600082013567ffffffffffffffff811115610f4357610f42610b80565b5b610f4f84828501610e3f565b91505092915050565b7f4e487b7100000000000000000000000000000000000000000000000000000000600052602260045260246000fd5b60006002820490506001821680610f9f57607f821691505b602082108103610fb257610fb1610f58565b5b50919050565b7f506f737420646f6573206e6f7420657869737400000000000000000000000000600082015250565b6000610fee601383610bf3565b9150610ff982610fb8565b602082019050919050565b6000602082019050818103600083015261101d81610fe1565b9050919050565b7f4e487b7100000000000000000000000000000000000000000000000000000000600052603260045260246000fd5b60008190508160005260206000209050919050565b60006020601f8301049050919050565b600082821b905092915050565b6000600883026110b57fffffffffffffffffffffffffffffffffffffffffffffffffffffffffffffffff82611078565b6110bf8683611078565b95508019841693508086168417925050509392505050565b6000819050919050565b60006110fc6110f76110f284610b85565b6110d7565b610b85565b9050919050565b6000819050919050565b611116836110e1565b61112a61112282611103565b848454611085565b825550505050565b600090565b61113f611132565b61114a81848461110d565b505050565b5b8181101561116e57611163600082611137565b600181019050611150565b5050565b601f8211156111b35761118481611053565b61118d84611068565b8101602085101561119c578190505b6111b06111a885611068565b83018261114f565b50505b505050565b600082821c905092915050565b60006111d6600019846008026111b8565b1980831691505092915050565b60006111ef83836111c5565b9150826002028217905092915050565b61120882610be8565b67ffffffffffffffff81111561122157611220610d42565b5b61122b8254610f87565b611236828285611172565b600060209050601f8311600181146112695760008415611257578287015190505b61126185826111e3565b8655506112c9565b601f19841661127786611053565b60005b8281101561129f5784890151825560018201915060208501945060208101905061127a565b868310156112bc57848901516112b8601f8916826111c5565b8355505b6001600288020188555050505b505050505050565b600060208201905081810360008301526112eb8184610c3f565b90509291505056fea2646970667358221220addf6ac4a7247d17e9079d710799974cfce0ace3c0b3429e358fcf8785b1fa0d64736f6c63430008180033",
  "linkReferences": {},
  "deployedLinkReferences": {}
}