{
  "_format": "hh-sol-artifact-1",
  "contractName": "BlockPro",
  "sourceName": "contracts/BlockPro.sol",
  "abi": [
    {
      "inputs": [],
      "stateMutability": "nonpayable",
      "type": "constructor"
    },
    {
      "anonymous": false,
      "inputs": [
        {
          "indexed": true,
          "internalType": "address",
          "name": "author",
          "type": "address"
        },
        {
          "indexed": false,
          "internalType": "string",
          "name": "content",
          "type": "string"
        }
      ],
      "name": "PostCreated",
      "type": "event"
    },
    {
      "anonymous": false,
      "inputs": [
        {
          "indexed": true,
          "internalType": "address",
          "name": "user",
          "type": "address"
        },
        {
          "indexed": false,
          "internalType": "string",
          "name": "name",
          "type": "string"
        },
        {
          "indexed": false,
          "internalType": "string",
          "name": "headline",
          "type": "string"
        }
      ],
      "name": "ProfileCreated",
      "type": "event"
    },
    {
      "anonymous": false,
      "inputs": [
        {
          "indexed": true,
          "internalType": "address",
          "name": "user",
          "type": "address"
        }
      ],
      "name": "ProfileDeleted",
      "type": "event"
    },
    {
      "anonymous": false,
      "inputs": [
        {
          "indexed": true,
          "internalType": "address",
          "name": "user",
          "type": "address"
        },
        {
          "indexed": false,
          "internalType": "string",
          "name": "name",
          "type": "string"
        },
        {
          "indexed": false,
          "internalType": "string",
          "name": "headline",
          "type": "string"
        }
      ],
      "name": "ProfileUpdated",
      "type": "event"
    },
    {
      "inputs": [
        {
          "internalType": "string",
          "name": "_content",
          "type": "string"
        }
      ],
      "name": "createPost",
      "outputs": [],
      "stateMutability": "nonpayable",
      "type": "function"
    },
    {
      "inputs": [
        {
          "internalType": "string",
          "name": "_name",
          "type": "string"
        },
        {
          "internalType": "string",
          "name": "_headline",
          "type": "string"
        }
      ],
      "name": "createProfile",
      "outputs": [],
      "stateMutability": "nonpayable",
      "type": "function"
    },
    {
      "inputs": [],
      "name": "creator",
      "outputs": [
        {
          "internalType": "address",
          "name": "",
          "type": "address"
        }
      ],
      "stateMutability": "view",
      "type": "function"
    },
    {
      "inputs": [],
      "name": "deleteProfile",
      "outputs": [],
      "stateMutability": "nonpayable",
      "type": "function"
    },
    {
      "inputs": [
        {
          "internalType": "uint256",
          "name": "_index",
          "type": "uint256"
        }
      ],
      "name": "getPost",
      "outputs": [
        {
          "internalType": "address",
          "name": "",
          "type": "address"
        },
        {
          "internalType": "string",
          "name": "",
          "type": "string"
        },
        {
          "internalType": "uint256",
          "name": "",
          "type": "uint256"
        }
      ],
      "stateMutability": "view",
      "type": "function"
    },
    {
      "inputs": [],
      "name": "getPostCount",
      "outputs": [
        {
          "internalType": "uint256",
          "name": "",
          "type": "uint256"
        }
      ],
      "stateMutability": "view",
      "type": "function"
    },
    {
      "inputs": [
        {
          "internalType": "address",
          "name": "_user",
          "type": "address"
        }
      ],
      "name": "getProfile",
      "outputs": [
        {
          "internalType": "string",
          "name": "",
          "type": "string"
        },
        {
          "internalType": "string",
          "name": "",
          "type": "string"
        }
      ],
      "stateMutability": "view",
      "type": "function"
    },
    {
      "inputs": [
        {
          "internalType": "uint256",
          "name": "",
          "type": "uint256"
        }
      ],
      "name": "posts",
      "outputs": [
        {
          "internalType": "address",
          "name": "author",
          "type": "address"
        },
        {
          "internalType": "string",
          "name": "content",
          "type": "string"
        },
        {
          "internalType": "uint256",
          "name": "timestamp",
          "type": "uint256"
        }
      ],
      "stateMutability": "view",
      "type": "function"
    },
    {
      "inputs": [
        {
          "internalType": "address",
          "name": "",
          "type": "address"
        }
      ],
      "name": "profiles",
      "outputs": [
        {
          "internalType": "string",
          "name": "name",
          "type": "string"
        },
        {
          "internalType": "string",
          "name": "headline",
          "type": "string"
        }
      ],
      "stateMutability": "view",
      "type": "function"
    },
    {
      "inputs": [
        {
          "internalType": "string",
          "name": "_name",
          "type": "string"
        },
        {
          "internalType": "string",
          "name": "_headline",
          "type": "string"
        }
      ],
      "name": "updateProfile",
      "outputs": [],
      "stateMutability": "nonpayable",
      "type": "function"
    }
  ],
  "bytecode": "0x608060405234801561001057600080fd5b5061002b67f79042b8474dc35260c01b61008b60201b60201c565b61004567759c77d3d3770f8c60c01b61008b60201b60201c565b33600260006101000a81548173ffffffffffffffffffffffffffffffffffffffff021916908373ffffffffffffffffffffffffffffffffffffffff16021790555061008e565b50565b6116518061009d6000396000f3fe608060405234801561001057600080fd5b506004361061009e5760003560e01c8063ba1feb8a11610066578063ba1feb8a14610160578063bbe156271461017c578063bcc95407146101ad578063c7303c61146101cb578063c9d3cc6a146101e75761009e565b806302d05d3f146100a35780630b1e7f83146100c15780630f53a470146100f357806340731c24146101245780636d4540eb14610156575b600080fd5b6100ab610203565b6040516100b89190610e70565b60405180910390f35b6100db60048036038101906100d69190610ed5565b610229565b6040516100ea93929190610fa1565b60405180910390f35b61010d6004803603810190610108919061100b565b61030b565b60405161011b929190611038565b60405180910390f35b61013e60048036038101906101399190610ed5565b6104f7565b60405161014d93929190610fa1565b60405180910390f35b61015e610738565b005b61017a600480360381019061017591906111a4565b61082e565b005b6101966004803603810190610191919061100b565b610954565b6040516101a4929190611038565b60405180910390f35b6101b5610a88565b6040516101c2919061121c565b60405180910390f35b6101e560048036038101906101e09190611237565b610ad1565b005b61020160048036038101906101fc91906111a4565b610c79565b005b600260009054906101000a900473ffffffffffffffffffffffffffffffffffffffff1681565b6001818154811061023957600080fd5b90600052602060002090600302016000915090508060000160009054906101000a900473ffffffffffffffffffffffffffffffffffffffff1690806001018054610282906112af565b80601f01602080910402602001604051908101604052809291908181526020018280546102ae906112af565b80156102fb5780601f106102d0576101008083540402835291602001916102fb565b820191906000526020600020905b8154815290600101906020018083116102de57829003601f168201915b5050505050908060020154905083565b606080610322675ccb2dd446612ac360c01b610dcf565b610336676f1bc13fa7b970fd60c01b610dcf565b61034a67ada27fd1d921176960c01b610dcf565b60008060008573ffffffffffffffffffffffffffffffffffffffff1673ffffffffffffffffffffffffffffffffffffffff1681526020019081526020016000206040518060400160405290816000820180546103a5906112af565b80601f01602080910402602001604051908101604052809291908181526020018280546103d1906112af565b801561041e5780601f106103f35761010080835404028352916020019161041e565b820191906000526020600020905b81548152906001019060200180831161040157829003601f168201915b50505050508152602001600182018054610437906112af565b80601f0160208091040260200160405190810160405280929190818152602001828054610463906112af565b80156104b05780601f10610485576101008083540402835291602001916104b0565b820191906000526020600020905b81548152906001019060200180831161049357829003601f168201915b50505050508152505090506104cf67b9e4539ad7abe93260c01b610dcf565b6104e36715cace6c90fe4fa660c01b610dcf565b806000015181602001519250925050915091565b60006060600061051167f09fd63aaf49e1f360c01b610dcf565b610525670badc7ab1e888ecd60c01b610dcf565b610539674d129ba6f5f429bc60c01b610dcf565b61054d67e32fa49c5c2c490a60c01b610dcf565b6001805490508410610594576040517f08c379a000000000000000000000000000000000000000000000000000000000815260040161058b9061132c565b60405180910390fd5b6105a86752a8cf9a1136ba9160c01b610dcf565b6105bc6766cc9fc33067cb7a60c01b610dcf565b6105d067a598de8e5f65f64560c01b610dcf565b6000600185815481106105e6576105e561134c565b5b90600052602060002090600302016040518060600160405290816000820160009054906101000a900473ffffffffffffffffffffffffffffffffffffffff1673ffffffffffffffffffffffffffffffffffffffff1673ffffffffffffffffffffffffffffffffffffffff168152602001600182018054610665906112af565b80601f0160208091040260200160405190810160405280929190818152602001828054610691906112af565b80156106de5780601f106106b3576101008083540402835291602001916106de565b820191906000526020600020905b8154815290600101906020018083116106c157829003601f168201915b50505050508152602001600282015481525050905061070767eca54a0ddc67a34b60c01b610dcf565b61071b6753e7ce1372dd85bc60c01b610dcf565b806000015181602001518260400151935093509350509193909250565b61074c67a47a5096ef1c757860c01b610dcf565b610760670261cc737aaf45f760c01b610dcf565b6000803373ffffffffffffffffffffffffffffffffffffffff1673ffffffffffffffffffffffffffffffffffffffff168152602001908152602001600020600080820160006107af9190610dd2565b6001820160006107bf9190610dd2565b50506107d567c425d82ed2d9e41960c01b610dcf565b6107e9670d2dfed52543ffd360c01b610dcf565b3373ffffffffffffffffffffffffffffffffffffffff167f517b492f6c7db035d7c3c4fa1ce0cb2d05e1f24219256f50fbab78242e544c0460405160405180910390a2565b610842678e4e476f3558444e60c01b610dcf565b610856675242cfb34375c57d60c01b610dcf565b6040518060400160405280838152602001828152506000803373ffffffffffffffffffffffffffffffffffffffff1673ffffffffffffffffffffffffffffffffffffffff16815260200190815260200160002060008201518160000190816108be9190611527565b5060208201518160010190816108d49190611527565b509050506108ec678873a9dff483449b60c01b610dcf565b6109006711f9b543d7b5f46560c01b610dcf565b3373ffffffffffffffffffffffffffffffffffffffff167f6b4494367229a908b0585b361e2871a21f8eb4cd852c02f55c9e06989f4bb2aa8383604051610948929190611038565b60405180910390a25050565b6000602052806000526040600020600091509050806000018054610977906112af565b80601f01602080910402602001604051908101604052809291908181526020018280546109a3906112af565b80156109f05780601f106109c5576101008083540402835291602001916109f0565b820191906000526020600020905b8154815290600101906020018083116109d357829003601f168201915b505050505090806001018054610a05906112af565b80601f0160208091040260200160405190810160405280929190818152602001828054610a31906112af565b8015610a7e5780601f10610a5357610100808354040283529160200191610a7e565b820191906000526020600020905b815481529060010190602001808311610a6157829003601f168201915b5050505050905082565b6000610a9e676a7f2ed8956d156c60c01b610dcf565b610ab26704d3eb4ecf2b2c1e60c01b610dcf565b610ac667ca51a529c1cb6d4760c01b610dcf565b600180549050905090565b610ae567764120406fae815d60c01b610dcf565b610af967bf72edea2e739e8160c01b610dcf565b610b0d67d1a785b9129dcdf760c01b610dcf565b6000429050610b2667929e35707f8111b060c01b610dcf565b610b3a67b41a52554acad88960c01b610dcf565b600160405180606001604052803373ffffffffffffffffffffffffffffffffffffffff16815260200184815260200183815250908060018154018082558091505060019003906000526020600020906003020160009091909190915060008201518160000160006101000a81548173ffffffffffffffffffffffffffffffffffffffff021916908373ffffffffffffffffffffffffffffffffffffffff1602179055506020820151816001019081610bf29190611527565b50604082015181600201555050610c136757fc3b9af92d580e60c01b610dcf565b610c27679b19fc568244891960c01b610dcf565b3373ffffffffffffffffffffffffffffffffffffffff167f60f6a34249e8c81d18200240e021c236fe990a6c8d1f66dd302470bd410587ba83604051610c6d91906115f9565b60405180910390a25050565b610c8d67ea428544ec5501a860c01b610dcf565b610ca1671ed7a74c9b04c75a60c01b610dcf565b816000803373ffffffffffffffffffffffffffffffffffffffff1673ffffffffffffffffffffffffffffffffffffffff1681526020019081526020016000206000019081610cef9190611527565b50610d0467b8705ed6cc9b816e60c01b610dcf565b806000803373ffffffffffffffffffffffffffffffffffffffff1673ffffffffffffffffffffffffffffffffffffffff1681526020019081526020016000206001019081610d529190611527565b50610d67679ece6a3682fb3f6060c01b610dcf565b610d7b67a3e1ffb445b9a14d60c01b610dcf565b3373ffffffffffffffffffffffffffffffffffffffff167f6eb3a1c6a4675ba92d44e090515b1ceea358f26565d2854df0c99c3f5eaf98508383604051610dc3929190611038565b60405180910390a25050565b50565b508054610dde906112af565b6000825580601f10610df05750610e0f565b601f016020900490600052602060002090810190610e0e9190610e12565b5b50565b5b80821115610e2b576000816000905550600101610e13565b5090565b600073ffffffffffffffffffffffffffffffffffffffff82169050919050565b6000610e5a82610e2f565b9050919050565b610e6a81610e4f565b82525050565b6000602082019050610e856000830184610e61565b92915050565b6000604051905090565b600080fd5b600080fd5b6000819050919050565b610eb281610e9f565b8114610ebd57600080fd5b50565b600081359050610ecf81610ea9565b92915050565b600060208284031215610eeb57610eea610e95565b5b6000610ef984828501610ec0565b91505092915050565b600081519050919050565b600082825260208201905092915050565b60005b83811015610f3c578082015181840152602081019050610f21565b60008484015250505050565b6000601f19601f8301169050919050565b6000610f6482610f02565b610f6e8185610f0d565b9350610f7e818560208601610f1e565b610f8781610f48565b840191505092915050565b610f9b81610e9f565b82525050565b6000606082019050610fb66000830186610e61565b8181036020830152610fc88185610f59565b9050610fd76040830184610f92565b949350505050565b610fe881610e4f565b8114610ff357600080fd5b50565b60008135905061100581610fdf565b92915050565b60006020828403121561102157611020610e95565b5b600061102f84828501610ff6565b91505092915050565b600060408201905081810360008301526110528185610f59565b905081810360208301526110668184610f59565b90509392505050565b600080fd5b600080fd5b7f4e487b7100000000000000000000000000000000000000000000000000000000600052604160045260246000fd5b6110b182610f48565b810181811067ffffffffffffffff821117156110d0576110cf611079565b5b80604052505050565b60006110e3610e8b565b90506110ef82826110a8565b919050565b600067ffffffffffffffff82111561110f5761110e611079565b5b61111882610f48565b9050602081019050919050565b82818337600083830152505050565b6000611147611142846110f4565b6110d9565b90508281526020810184848401111561116357611162611074565b5b61116e848285611125565b509392505050565b600082601f83011261118b5761118a61106f565b5b813561119b848260208601611134565b91505092915050565b600080604083850312156111bb576111ba610e95565b5b600083013567ffffffffffffffff8111156111d9576111d8610e9a565b5b6111e585828601611176565b925050602083013567ffffffffffffffff81111561120657611205610e9a565b5b61121285828601611176565b9150509250929050565b60006020820190506112316000830184610f92565b92915050565b60006020828403121561124d5761124c610e95565b5b600082013567ffffffffffffffff81111561126b5761126a610e9a565b5b61127784828501611176565b91505092915050565b7f4e487b7100000000000000000000000000000000000000000000000000000000600052602260045260246000fd5b600060028204905060018216806112c757607f821691505b6020821081036112da576112d9611280565b5b50919050565b7f506f737420646f6573206e6f7420657869737400000000000000000000000000600082015250565b6000611316601383610f0d565b9150611321826112e0565b602082019050919050565b6000602082019050818103600083015261134581611309565b9050919050565b7f4e487b7100000000000000000000000000000000000000000000000000000000600052603260045260246000fd5b60008190508160005260206000209050919050565b60006020601f8301049050919050565b600082821b905092915050565b6000600883026113dd7fffffffffffffffffffffffffffffffffffffffffffffffffffffffffffffffff826113a0565b6113e786836113a0565b95508019841693508086168417925050509392505050565b6000819050919050565b600061142461141f61141a84610e9f565b6113ff565b610e9f565b9050919050565b6000819050919050565b61143e83611409565b61145261144a8261142b565b8484546113ad565b825550505050565b600090565b61146761145a565b611472818484611435565b505050565b5b818110156114965761148b60008261145f565b600181019050611478565b5050565b601f8211156114db576114ac8161137b565b6114b584611390565b810160208510156114c4578190505b6114d86114d085611390565b830182611477565b50505b505050565b600082821c905092915050565b60006114fe600019846008026114e0565b1980831691505092915050565b600061151783836114ed565b9150826002028217905092915050565b61153082610f02565b67ffffffffffffffff81111561154957611548611079565b5b61155382546112af565b61155e82828561149a565b600060209050601f831160018114611591576000841561157f578287015190505b611589858261150b565b8655506115f1565b601f19841661159f8661137b565b60005b828110156115c7578489015182556001820191506020850194506020810190506115a2565b868310156115e457848901516115e0601f8916826114ed565b8355505b6001600288020188555050505b505050505050565b600060208201905081810360008301526116138184610f59565b90509291505056fea2646970667358221220aef63a6253624232c73e89c8eed8253ca7ca3c9e831e74f7011890b49734119064736f6c63430008180033",
  "linkReferences": {},
  "deployedLinkReferences": {}
}